:100000008FC005C2A8C0A7C0A6C05BC33AC3A3C027
:10001000A2C0A1C0A0C09FC09EC09DC09CC09BC0EC
:100020009AC099C098C004030904240374006800AE
:100030006F006D006100730070006600650069006C
:100040006600650072002E006E00650074003403C7
:10005000500050004D0032005500530042002D006A
:10006000740068006F006D0061007300700066002E
:10007000650069006600650072002E006E00650074
:1000800074002C03740068006F006D006100730041
:1000900070006600650069006600650072002E0051
:1000A0006E00650074003A0030003000310012012B
:1000B000100100000008C016DB2700010102030147
:1000C00009022200010100800A0904000001030066
:1000D0000000092101010001223E000705810308FB
:1000E000000A0501150026FF0075080904A1010991
:1000F00001A1000930093195028182C0A1000932B5
:10010000093395028182C0050919012904150025CA
:10011000017501950465008102950175048103C094
:1001200011241FBECFE5D4E0DEBFCDBF10E0A0E6B6
:10013000B0E0E8E2F9E002C005900D92AC36B107FC
:10014000D9F710E0ACE6B0E001C01D92AF3BB107BB
:10015000E1F75AD3E7C354CF85B7826085BF8BB729
:1001600080648BBF8BE4809382008AE5809381005A
:1001700008951F93CF93DF9390919200935097FD32
:10018000B0C020918F0080918E008D3209F0A7C001
:10019000983009F0A4C0CCE0D0E0C21BD109CA5607
:1001A000DF4F83EC809376008AE5809360001092A5
:1001B0006C008881807621F0CE0103D3282F86C081
:1001C0009A8110927F008981882321F41092800007
:1001D00022E076C0853019F49093930070C0863089
:1001E00009F059C08B81813041F48EEA90E0909300
:1001F00091008093900022E14AC0823041F480EC6B
:1002000090E0909391008093900022E240C0833070
:1002100049F58A81882341F486E290E09093910029
:100220008093900024E033C0813041F48AE290E072
:10023000909391008093900024E229C0823041F491
:100240008EE490E0909391008093900024E31FC08F
:100250008330E1F482E890E09093910080939000E5
:100260002CE215C0813241F482ED90E09093910030
:100270008093900029E00BC0823241F482EE90E03E
:1002800090939100809390002EE301C020E080E4E1
:1002900080936C001BC0883021F421E085E990E058
:1002A00011C0893019F49093950009C08A3011F477
:1002B00021E006C08B3019F48BE48093820020E0AB
:1002C0008FE790E090939100809390008F81882336
:1002D00021F48E81821708F4282F20936100109258
:1002E00092008091600084FF49C0809161008F3F3F
:1002F00009F444C0182F893008F018E0811B80935E
:1003000061008091760098E8892780937600112318
:1003100041F1209190003091910080916C0086FF16
:100320000DC0A7E7B0E080E090E0F901E80FF91F09
:10033000E491ED9301961817C1F708C0912FD901E8
:10034000E7E7F0E08D9181939150E1F71150812F13
:1003500090E01F5F0196820F931F9093910080930E
:10036000900087E790E0612F4ED0612F6C5F6C307A
:1003700019F08FEF809361006093600094E186B381
:10038000837031F49150D9F71092930010928D0040
:10039000DF91CF911F9108951F93DC01162F80915B
:1003A000810084FF07C08091820098E889278093AC
:1003B000820003C08AE580938100912FE3E8F0E09A
:1003C0008D91819391501916DCF383E890E0612FB1
:1003D0001AD01C5F109381001F910895A82FB92F88
:1003E00080E090E041E050EA609530E009C02D9156
:1003F00082279795879510F084279527305EC8F35C
:100400006F5FA8F30895EADF8D939D930895CF93CE
:10041000CFB7CF93C395B09BE9F7B09B09C0B09B12
:1004200007C0B09B05C0B09B03C0B09B01C0A3C078
:10043000DF93C0918F00DD27CA56DF4FB09B02C00B
:10044000DF91EBCF2F930F931F9306B32FEF00FB9A
:1004500020F94F933F9316B34FEF012700FB21F98B
:100460003BE031C04E7F012F16B3216028C0102F12
:100470004D7F2260000006B329C04B7F2460012F0E
:10048000000016B32BC016B3477F28602AC04F7EEA
:1004900006B320612CC04F7D16B320622FC04F7B66
:1004A00006B3206432C0422706B349934FEF0000E1
:1004B000102710FB20F916B31370C9F1297F91F2B0
:1004C000012700FB21F906B3237F89F2315058F14F
:1004D000102710FB22F916B3277E79F2012700FBC3
:1004E00023F92F7C81F206B3102710FB24F92F7912
:1004F00071F200C016B3012700FB25F92F7359F2E2
:1005000000C006B3102710FB26F9223040F200C0CD
:1005100016B3012700FB27F9243028F64F7720680F
:1005200016B30000F9CF10E41ABF002719C03B50E2
:100530003195C31BD04010E41ABF0881033CF9F089
:100540000B34E9F020918D001981110F1213EDCFBA
:100550004A81441F093641F10D3211F0013E29F75D
:10056000009394003F914F911F910F912F91DF9134
:10057000CAB7C6FD4FCFCF91CFBFCF91189520916D
:100580009400222379F310919200112369F53430FD
:100590006AF13093920020938E0010918F003BE01F
:1005A000311B30938F0022C0009192000130E4F49F
:1005B0000AE54F7049F43091600034FD19C0009392
:1005C0006000C6E7D0E018C03091810034FD10C053
:1005D00000938100C2E8D0E00FC02795A8F45150E5
:1005E000A9F4220F0000F9CF4AE503C042ED01C093
:1005F000432FC4E1D0E032E017B31360C09A17BBB9
:1006000008B320E413E05F93012756E008BB279569
:1006100020F4515021F4220FF9CF012756E00000B9
:100620003B5A08BBD0F2279528F4515029F4220FE9
:100630000000F9CF012756E0279508BB20F4515060
:1006400021F4220FF9CF012756E02991332308BB6B
:1006500021F60C7F10919300110FC651D04008BBBA
:1006600011F010938D0010E41ABF016017B31C7FC6
:10067000402F4C7F5F9100C000C008BB17BB48BB38
:1006800071CF1F920F920FB60F9211242F938F9359
:100690009F9380916200909163008F5F9F4F19F04C
:1006A00081E08093BE008FEF9FEF90936300809373
:1006B00062009F918F912F910F900FBE0F901F900E
:1006C00018951F920F920FB60F9211242F933F93FC
:1006D0008F939F93EF93FF9326B537B520563347FB
:1006E0003BBD2ABD205A3C488091BC009091BD0082
:1006F0008091BC009091BD00281B390B86B597B541
:100700009093BD008093BC00809162009091630043
:1007100097FD10C08091620090916300089754F497
:10072000E0916200F0916300EE0FFF1FE455FF4F70
:1007300031832083809162009091630001969093B1
:1007400063008093620085B392E0892785BBFF91A7
:10075000EF919F918F913F912F910F900FBE0F902E
:100760001F90189581E08EBD8EB580688EBD8EB5C8
:1007700080648EBD429A469A80E389BF1092BE0083
:100780008FEF9FEF90936300809362000895FC01C8
:10079000EE0FFF1FE455FF4F808191812EE2803ED6
:1007A000920710F480EE9EE2805E9E426FE270E05F
:1007B000A5D0CB016F3F710519F010F08FEF90E0DD
:1007C0000895FC01808180768032E1F4818181305E
:1007D00041F48DE690E0909391008093900088E042
:1007E0000895823041F485E790E0909391008093E2
:1007F000900081E008958A3029F483818093750008
:1008000080E0089580E00895EF92FF920F931F9388
:10081000CF93DF932EE088E190E00FB6F894A8958F
:1008200081BD0FBE21BD9EDF97DCB89A20E048EB6A
:100830005BE004C0A895CA010197F1F72150D1F7F8
:10084000B89884B3836084BB789481E08093BE00C1
:1008500010E094E0E92E88E0F82E01C011E0A895A0
:1008600088DC8091BE008823D1F31092BE000091F5
:100870007100C0E0D0E0CE018ADF982FC53070F45F
:10088000FE01EC59FF4F8081E82FF0E0E359FF4F64
:1008900080818917F1F0908311E01BC0C53061F4AD
:1008A00010927100913A18F0F092710012C09A35CE
:1008B00080F4E09271000DC0993C20F080917100AD
:1008C000826005C0983328F4809171008160809324
:1008D00071002196C730D10571F6809171008017A3
:1008E00019F4112309F4BBCF8091810084FFB6CFA6
:1008F0008DE690E065E050DD10E0B1CFAA1BBB1B98
:1009000051E107C0AA1FBB1FA617B70710F0A61B0F
:10091000B70B881F991F5A95A9F780959095BC0130
:08092000CD010895F894FFCF0A
:0C0928005AFFFFFF040001020305060750
:00000001FF
